:100000000C942D000C94D2070C94D2070C94D207B8
:100010000C94B8050C948F050C9466050C943D0562
:100020000C9414050C94EB040C94C2040C949904E5
:100030000C94D2070C94D2070C94D2070C94D207DC
:100040000C9408040C94D2070C94D2070C94D20799
:100050000C94D20700600098800011241FBECFE5E9
:10006000D8E0DEBFCDBFE4E5F0E040E017C0B591D9
:10007000A59135912591059107FD0CC0959185912C
:10008000EF01F92FE82F05900D92A217B307D9F7CA
:10009000FE0104C01D92A217B307E1F7E935F4078A
:0E00A00031F70E94E1060C947207F894FFCF2E
:1000AE008F929F92AF92BF92CF92DF92EF92FF927A
:1000BE001F93CF93DF93CDB7DEB72A970FB6F89481
:1000CE00DEBF0FBECDBF6B017C0160E070E0CB01E7
:1000DE0010E025C0DC01CB01880F991FAA1FBB1FA2
:1000EE004C015D01880C991CAA1CBB1C880C991C28
:1000FE00AA1CBB1C880E991EAA1EBB1EC701B601E8
:10010E002AE030E040E050E00E942906680D791D9B
:10011E008A1D9B1DC22ED32EE42EF52E1F5FC114F9
:10012E00D104E104F104B1F6F12C13C02AE030E061
:10013E0040E050E00E942906E1E0F0E0EC0FFD1FE8
:10014E00EC0DFD1D605D6083622F732F842F952F44
:10015E00F394CF2C0F2C000CDD08212F30E0C216AB
:10016E00D30624F3BE016F5F7F4FFB01E20FF31F37
:10017E00108280E80E948C062A960FB6F894DEBF95
:10018E000FBECDBFDF91CF911F91FF90EF90DF900B
:0C019E00CF90BF90AF909F908F9008957D
:1001AA00843008F072C0683008F06FC0423008F03E
:1001BA006CC0813001F130F08230B1F1833009F442
:1001CA004CC00895413059F42AB381E090E002C04E
:1001DA00880F991F6A95E2F7822B8ABB08952AB382
:1001EA0081E090E002C0880F991F6A95E2F7809536
:1001FA0082238ABB0895413059F427B381E090E005
:10020A0002C0880F991F6A95E2F7822B87BB08956F
:10021A0027B381E090E002C0880F991F6A95E2F740
:10022A008095822387BB0895413059F424B381E035
:10023A0090E002C0880F991F6A95E2F7822B84BB6F
:10024A00089524B381E090E002C0880F991F6A954F
:10025A00E2F78095822384BB0895413059F421B393
:10026A0081E090E002C0880F991F6A95E2F7822B1D
:10027A0081BB089521B381E090E002C0880F991FE5
:0C028A006A95E2F78095822381BB0895FD
:10029600843008F072C0683008F06FC0423008F051
:1002A6006CC0813001F130F08230B1F1833009F455
:1002B6004CC00895413059F42BB381E090E002C060
:1002C600880F991F6A95E2F7822B8BBB08952BB393
:1002D60081E090E002C0880F991F6A95E2F7809549
:1002E60082238BBB0895413059F428B381E090E016
:1002F60002C0880F991F6A95E2F7822B88BB089582
:1003060028B381E090E002C0880F991F6A95E2F752
:100316008095822388BB0895413059F425B381E046
:1003260090E002C0880F991F6A95E2F7822B85BB81
:10033600089525B381E090E002C0880F991F6A9561
:10034600E2F78095822385BB0895413059F422B3A4
:1003560081E090E002C0880F991F6A95E2F7822B30
:1003660082BB089522B381E090E002C0880F991FF6
:0C0376006A95E2F78095822382BB08950F
:1003820010C00E949E0758F00E94970740F029F47F
:100392005F3F29F00C94AC0751110C94A6070C9402
:1003A200CF070E94070668F39923B1F3552391F30F
:1003B200951B550BBB27AA2762177307840738F0D2
:1003C2009F5F5F4F220F331F441FAA1FA9F335D02F
:1003D2000E2E3AF0E0E832D091505040E695001CE3
:1003E200CAF72BD0FE2F29D0660F771F881FBB1F9D
:1003F200261737074807AB07B0E809F0BB0B802D7B
:10040200BF01FF2793585F4F3AF09E3F510578F0A6
:100412000C94AC070C94A6075F3FE4F3983ED4F328
:10042200869577956795B795F7959F5FC9F7880F7A
:10043200911D9695879597F90895E1E0660F771FCC
:10044200881FBB1F621773078407BA0720F0621B5D
:0E045200730B840BBA0BEE1F88F7E09508952C
:100460000FC00E94970738F00E949E0720F0952346
:1004700011F00C94AC070C94CF0711240C94A60730
:100480000E94070670F3959FC1F3950F50E0551F2A
:10049000629FF001729FBB27F00DB11D639FAA27D9
:1004A000F00DB11DAA1F649F6627B00DA11D661F28
:1004B000829F2227B00DA11D621F739FB00DA11D49
:1004C000621F839FA00D611D221F749F3327A00D03
:1004D000611D231F849F600D211D822F762F6A2F9F
:1004E00011249F5750409AF0F1F088234AF0EE0F04
:1004F000FF1FBB1F661F771F881F91505040A9F731
:100500009E3F510580F00C94AC070C94A6075F3F0A
:10051000E4F3983ED4F3869577956795B795F7956C
:10052000E7959F5FC1F7FE2B880F911D96958795E4
:0405300097F908959A
:1005340011C00E94970738F00E949E0720F039F4FA
:100544009F3F19F426F40C94CF070EF4E095E7FBD3
:100554000C94AC07E92F0E94070658F3BA176207F8
:1005640073078407950720F079F4A6F50C94A50782
:100574000EF4E0950B2EBA2FA02D0B01B9019001BA
:100584000C01CA01A0011124FF27591B99F0593FFE
:1005940050F4503E68F11A16F040A22F232F342F46
:1005A4004427585FF3CF469537952795A795F04094
:1005B4005395C9F77EF41F16BA0B620B730B840BA9
:1005C400BAF09150A1F0FF0FBB1F661F771F881F61
:1005D400C2F70EC0BA0F621F731F841F48F48795B9
:1005E40077956795B795F7959E3F08F0B0CF9395AB
:0E05F400880F08F09927EE0F979587950895C8
:10060200809194009091950083349F4009F045C0F9
:1006120067E083E00E94C6070E94C60660936C00F2
:1006220070936D0080936E0090936F000E944B0652
:10063200609368007093690080936A0090936B00E6
:1006420020916C0030916D0040916E0050916F00CE
:100652000E94C2079B01AC0160937000709371000D
:1006620080937200909373006091600070916100BA
:1006720080916200909163000E94910760936000F4
:1006820070936100809362009093630010929500D2
:100692001092940080E40E94D4078091940090917B
:0E06A200950001969093950080939400089522
:1006B000E89409C097FB3EF49095809570956195FC
:1006C0007F4F8F4F9F4F9923A9F0F92F96E9BB27B2
:1006D0009395F695879577956795B795F111F8CF2E
:1006E000FAF4BB0F11F460FF1BC06F5F7F4F8F4F99
:1006F0009F4F16C0882311F096E911C0772321F08F
:100700009EE8872F762F05C0662371F096E8862F26
:1007100070E060E02AF09A95660F771F881FDAF77D
:0A072000880F9695879597F90895C4
:10072A0041E060E081E00E94D50041E061E081E0C3
:10073A000E94D50041E062E081E00E94D5006FEF9F
:10074A0082E00E94FC062FEB8AED90E02150804067
:10075A009040E1F700C0000088E30E946C0625E89B
:10076A002A95F1F700008FE00E946C0685E88A95C9
:10077A00F1F7000081E00E946C068FE99FE0019783
:10078A00F1F700C0000086E00E946C0695E89A9591
:06079A00F1F700000895D4
:1007A0008430A8F5683098F5813089F028F08230DF
:1007B000C9F0833011F108952BB381E090E002C0BD
:1007C000880F991F6A95E2F782278BBB089528B39B
:1007D00081E090E002C0880F991F6A95E2F78227B6
:1007E00088BB089525B381E090E002C0880F991F6F
:1007F0006A95E2F7822785BB089522B381E090E0F5
:1008000002C0880F991F6A95E2F7822782BB08957C
:100810001F920F920FB60F9211242F933F934F9375
:100820005F936F937F938F939F93AF93BF93EF9358
:10083000FF93E0919600F091970024B185B190E08C
:10084000982F8827822B91838083E0E0F0E0099540
:100850000E94B207FF91EF91BF91AF919F918F914D
:100860007F916F915F914F913F912F910F900FBEAC
:060870000F901F90189587
:1008760097B1907E97B997B1892B87B90E94BA072D
:1008860080E090E0DC0103C00196A11DB11D349902
:1008960007C088382DE0920721E0A207B105A0F332
:1008A60088389D40A140B10579F08FE19EE401971B
:1008B600F1F700C000000E94B60724B185B190E0B0
:0E08C600982F8827822B089580E090E00895F7
:1008D4000E940F0688F09F5798F0B92F9927B751B7
:1008E400B0F0E1F0660F771F881F991F1AF0BA95D0
:1008F400C9F714C0B13091F00E94A507B1E0089582
:100904000C94A507672F782F8827B85F39F0B93F73
:10091400CCF3869577956795B395D9F73EF4909582
:0E0924008095709561957F4F8F4F9F4F08957E
:100932001F920F920FB60F9211242F933F934F9352
:100942005F936F937F938F939F93AF93BF93EF9335
:10095200FF93E0918A00F0918B00309709F009959E
:10096200FF91EF91BF91AF919F918F917F916F9185
:100972005F914F913F912F910F900FBE0F901F905B
:020982001895C6
:100984001F920F920FB60F9211242F933F934F9300
:100994005F936F937F938F939F93AF93BF93EF93E3
:1009A400FF93E0918800F0918900309709F0099550
:1009B400FF91EF91BF91AF919F918F917F916F9133
:1009C4005F914F913F912F910F900FBE0F901F9009
:0209D400189574
:1009D6001F920F920FB60F9211242F933F934F93AE
:1009E6005F936F937F938F939F93AF93BF93EF9391
:1009F600FF93E0918600F0918700309709F0099502
:100A0600FF91EF91BF91AF919F918F917F916F91E0
:100A16005F914F913F912F910F900FBE0F901F90B6
:020A2600189521
:100A28001F920F920FB60F9211242F933F934F935B
:100A38005F936F937F938F939F93AF93BF93EF933E
:100A4800FF93E0918400F0918500309709F00995B3
:100A5800FF91EF91BF91AF919F918F917F916F918E
:100A68005F914F913F912F910F900FBE0F901F9064
:020A78001895CF
:100A7A001F920F920FB60F9211242F933F934F9309
:100A8A005F936F937F938F939F93AF93BF93EF93EC
:100A9A00FF93E0918200F0918300309709F0099565
:100AAA00FF91EF91BF91AF919F918F917F916F913C
:100ABA005F914F913F912F910F900FBE0F901F9012
:020ACA0018957D
:100ACC001F920F920FB60F9211242F933F934F93B7
:100ADC005F936F937F938F939F93AF93BF93EF939A
:100AEC00FF93E0918000F0918100309709F0099517
:100AFC00FF91EF91BF91AF919F918F917F916F91EA
:100B0C005F914F913F912F910F900FBE0F901F90BF
:020B1C0018952A
:100B1E001F920F920FB60F9211242F933F934F9364
:100B2E005F936F937F938F939F93AF93BF93EF9347
:100B3E00FF93E0917E00F0917F00309709F00995C8
:100B4E00FF91EF91BF91AF919F918F917F916F9197
:100B5E005F914F913F912F910F900FBE0F901F906D
:020B6E001895D8
:100B70001F920F920FB60F9211242F933F934F9312
:100B80005F936F937F938F939F93AF93BF93EF93F5
:100B9000FF93E0917C00F0917D00309709F009957A
:100BA000FF91EF91BF91AF919F918F917F916F9145
:100BB0005F914F913F912F910F900FBE0F901F901B
:020BC000189586
:100BC200CF93C82F41E060E081E00E944B0140E0FA
:100BD20061E081E00E944B016C2F82E00E942507B8
:100BE20041E062E081E00E944B0182E08A95F1F7E8
:100BF20000C040E062E081E00E944B018FE19EE490
:0C0C02000197F1F700C00000CF910895A9
:100C0E0057FD9058440F551F59F05F3F71F04795AF
:100C1E00880F97FB991F61F09F3F79F08795089594
:100C2E00121613061406551FF2CF4695F1DF08C0B3
:100C3E00161617061806991FF1CF869571056105D0
:040C4E000894089569
:100C5200A1E21A2EAA1BBB1BFD010DC0AA1FBB1FBE
:100C6200EE1FFF1FA217B307E407F50720F0A21B30
:100C7200B30BE40BF50B661F771F881F991F1A949D
:100C820069F760957095809590959B01AC01BD01C7
:040C9200CF010895F1
:100C960080E00E943B04BC01660F771F660F771F3A
:100CA600680F791F80E090E00E94580320E030E052
:100CB60040E85AE30E94C20720E030E040E250E4F8
:100CC6000E94900722E03BE247E85DE30E94BE07F0
:020CD60008957F
:100CD800CF93C82F40E060E081E00E944B0140E0E4
:100CE80061E081E00E944B016C2F82E00E942507A1
:100CF80041E062E081E00E944B0182E08A95F1F7D1
:100D080000C040E062E081E00E944B01CF9108956D
:100D1800CF92DF92EF92CF9361157105810591F023
:100D28006B01E82EC0E003C00E94E105CF5FAE2D45
:100D3800C6018C0F911DA11DFC018491A7FD808126
:0E0D48008111F2CFCF91EF90DF90CF90089500
:100D560087B18F7B87B987B18F7787B987B18F7D49
:100D660087B986B1887F86B986B1866086B986B12D
:100D7600806286B980B7817180BF80B780BF86B137
:060D8600806886B90895A3
:100D8C0080E00E943B04BC01660F771F660F771F43
:100D9C00680F791F80E090E00E94580320E030E05B
:100DAC0040E85AE30E94C20720E030E040EA50E4F9
:060DBC000E94C207089529
:100DC20067E083E00E9458070E9448070E9495034B
:100DD2000E9487070E946A040E9458030E946A04C4
:100DE2000E9457008FE19EE40197F1F700C00000D6
:060DF2000E947D07EDCF19
:100DF800843098F4813049F028F0823049F083300B
:100E080051F008958FEF8ABB08958FEF87BB08953F
:0C0E18008FEF84BB08958FEF81BB08951D
:100E240083B78F7B83BF83B7877F83BF89B7816095
:100E340089BF83B78B7F83BF83B7826083BF83B748
:060E44008E7F83BF0895BC
:100E4A00843078F4813041F028F0823039F08330F0
:100E5A0039F008956BBB089568BB089565BB089582
:040E6A0062BB0895CA
:100E6E00092E0394000C11F4882352F0BB0F40F4AA
:100E7E00BF2B11F460FF04C06F5F7F4F8F4F9F4FEA
:020E8E000895C5
:100E90000E94CC070E94C90778940E9412076BE059
:100EA00081E093E00E94670780E40E94D4070895E0
:100EB000CF93DF93C82FD62F41E00E94D50040E0AA
:0E0EC0006D2F8C2F0E944B01DF91CF91089572
:100ECE00009741F0E62FF0E0EE0FFF1FEC58FF4FBA
:060EDE009183808308955A
:100EE400EC010E94D9070E94D807CE010E94DA07BC
:060EF400CE010E94D607AA
:100EFA0081E00E946C068FE99FE00197F1F700C03C
:040F0A000000089546
:100F0E006091600070916100809162009091630029
:020F1E00089534
:0E0F20005058BB27AA270E949A020C9437074C
:0E0F2E0000240A9416161706180609060895E0
:0E0F3C0000240A9412161306140605060895E2
:0E0F4A00E894BB2766277727CB0197F9089517
:0C0F580097F99F6780E870E060E0089562
:080F640086B1877F86B908956C
:080F6C0086B1806186B9089589
:080F740086B1806486B908957E
:080F7C000E94C1010C9437072B
:080F84000E9430020C943707B3
:060F8C000E94D00308954D
:060F92000E94AB06089569
:060F98000E94AB06089563
:060F9E009FEF80EC0895B6
:040FA4000C940000A9
:040FA80082BF089567
:040FAC000E9455004A
:020FB0000895A2
:020FB2000895A0
:020FB40008959E
:00000001FF
