:100000000C942D000C94F9080C94F9080C94F90840
:100010000C94F9080C94F9080C94F9080C94F9085C
:100020000C94F9080C94F9080C94AE060C9485060F
:100030000C94F9080C94F9080C94F9080C94F9083C
:100040000C94F4050C94F9080C94F9080C94F90834
:100050000C94F90800600096800011241FBECFE5C3
:10006000D8E0DEBFCDBFE4E5F0E040E017C0B591D9
:10007000A59135912591059107FD0CC0959185912C
:10008000EF01F92FE82F05900D92A217B307D9F7CA
:10009000FE0104C01D92A217B307E1F7E935F4078A
:0E00A00031F70E94C5070C947708F894FFCF43
:1000AE004F925F926F927F928F929F92AF92BF927A
:1000BE00CF92DF92EF92FF9280918E0090918F00FF
:1000CE0083709927892B09F000C10E94FF07609366
:1000DE0070007093710080937200909373000E9471
:1000EE0065076B017C0160936C0070936D008093CB
:1000FE006E0090936F00609170007091710080910E
:10010E007200909173009B01AC010E94E90820914E
:10011E0080003091810040918200509183000E94B6
:10012E00AE082B013C016093800070938100809398
:10013E00820090938300A7019601C701B6010E9429
:10014E00E908209188003091890040918A005091F1
:10015E008B000E94AE084B015C0160938800709387
:10016E00890080938A0090938B00C0906400D09099
:10017E006500E0906600F09067008FEFC81AD80A0D
:10018E00E80AF80AC0926400D0926500E092660018
:10019E00F092670088EEC81683E0D806E104F104F9
:1001AE00B1F5C301B2010E9485012B013C01C701CB
:1001BE00B6010E9444056B017C019B01AC01C30199
:1001CE00B2010E94E50860937400709375008093ED
:1001DE00760090937700C501B4010E948501A701B6
:1001EE0096010E94E5086093680070936900809301
:1001FE006A0090936B00109264001092650010924A
:10020E0066001092670067E083E00E94ED0820917F
:10021E006C0030916D0040916E0050916F006091B6
:10022E0070007091710080917200909173000E9425
:10023E00E90820E030E04AE754E40E94E5086093C4
:10024E0084007093850080938600909387002091A0
:10025E0068003091690040916A0050916B00609186
:10026E0080007091810080918200909183000E94A5
:10027E00E90820E030E04AE754E40E94E508609384
:10028E007C0070937D0080937E0090937F0020E031
:10029E0030E04AE754E40E94E5089B01AC0160910E
:1002AE0060007091610080916200909163000E94E5
:1002BE00AE0860936000709361008093620090932B
:1002CE00630010928F0010928E0080918E0090919C
:1002DE008F00019690938F0080938E0088EE0E947F
:1002EE00FB08FF90EF90DF90CF90BF90AF909F9064
:0C02FE008F907F906F905F904F9008955C
:10030A004F925F926F927F928F929F92AF92BF921B
:10031A00CF92DF92EF92FF920F931F936B017C01B2
:10032A00DC01CB01B701A6014427552760787F7706
:10033A004115510560487F4759F4A7019601C70145
:10034A00B6010E94E908A70196010E94AE081AC0E8
:10035A00181619061A061B06D4F0892B8A2B8B2B22
:10036A0009F4CCC081E290E090938D0080938C00D8
:10037A00A7019601C701B6010E94AD089B01AC0115
:10038A000E94E508562F472F382F292FBBC067E157
:10039A00F594E794D794C7946A95D1F7C114D10418
:1003AA00E104F104E1F4C12CD12C7601A7FD0AC0C5
:1003BA00880F991FAA1FBB1F2FEFC21AD20AE20A7F
:1003CA00F20AF4CF21E0C21AD108E108F108F09448
:1003DA00E094D094C094C11CD11CE11CF11C2FE7FD
:1003EA00C21AD108E108F108AF77BB27A068C0FE9E
:1003FA0004C0880F991FAA1FBB1FF594E794D794CE
:10040A00C794880F991FAA1FBB1FE9E1F0E040E0DB
:10041A0050E060E071E0812C912C540100E010E082
:10042A00980128013901440E551E661E771E84154F
:10043A009505A605B70574F093018201040F151FEF
:10044A00261F371F84199509A609B709840E951E18
:10045A00A61EB71E880F991FAA1FBB1F7695679500
:10046A00579547953197E9F6892B8A2B8B2BA1F162
:10047A0020E632E442EA5DE060E070E080E89FE373
:10048A000E94AD0820E030E040E85FE30E94D40813
:10049A0087FD22C020E632E442EA5DE060E070E0D7
:1004AA0080E89FE30E94AE0820E030E040E85FE386
:1004BA000E94D408181634F482E0880E911CA11CFC
:1004CA00B11C0AC0D501C40181709927AA27BB278C
:1004DA00880E991EAA1EBB1ED501C401B595A79503
:1004EA0097958795B15C37E1CC0CDD1CEE1CFF1C9F
:1004FA003A95D1F7C80ED91EEA1EFB1E5C2D4D2D6A
:10050A003E2D2F2D652F742F832F922F1F910F9120
:10051A00FF90EF90DF90CF90BF90AF909F908F9019
:0A052A007F906F905F904F9008954E
:100534008F929F92AF92BF92CF92DF92EF92FF92EF
:100544001F93CF93DF93CDB7DEB72A970FB6F894F6
:10055400DEBF0FBECDBF6B017C0160E070E0CB015C
:1005640010E025C0DC01CB01880F991FAA1FBB1F17
:100574004C015D01880C991CAA1CBB1C880C991C9D
:10058400AA1CBB1C880E991EAA1EBB1EC701B6015D
:100594002AE030E040E050E00E944307680D791DF6
:1005A4008A1D9B1DC22ED32EE42EF52E1F5FC1146F
:1005B400D104E104F104B1F6F12C13C02AE030E0D7
:1005C40040E050E00E944307E1E0F0E0EC0FFD1F43
:1005D400EC0DFD1D605D6083622F732F842F952FBA
:1005E400F394CF2C0F2C000CDD08212F30E0C21621
:1005F400D30624F3BE016F5F7F4FFB01E20FF31FAD
:10060400108280E80E94A6072A960FB6F894DEBFEF
:100614000FBECDBFDF91CF911F91FF90EF90DF9080
:0C062400CF90BF90AF909F908F900895F2
:10063000843008F072C0683008F06FC0423008F0B3
:100640006CC0813001F130F08230B1F1833009F4B7
:100650004CC00895413059F42AB381E090E002C0C3
:10066000880F991F6A95E2F7822B8ABB08952AB3F7
:1006700081E090E002C0880F991F6A95E2F78095AB
:1006800082238ABB0895413059F427B381E090E07A
:1006900002C0880F991F6A95E2F7822B87BB0895E5
:1006A00027B381E090E002C0880F991F6A95E2F7B6
:1006B0008095822387BB0895413059F424B381E0AB
:1006C00090E002C0880F991F6A95E2F7822B84BBE5
:1006D000089524B381E090E002C0880F991F6A95C5
:1006E000E2F78095822384BB0895413059F421B309
:1006F00081E090E002C0880F991F6A95E2F7822B93
:1007000081BB089521B381E090E002C0880F991F5A
:0C0710006A95E2F78095822381BB089572
:10071C00843008F072C0683008F06FC0423008F0C6
:10072C006CC0813001F130F08230B1F1833009F4CA
:10073C004CC00895413059F42BB381E090E002C0D5
:10074C00880F991F6A95E2F7822B8BBB08952BB308
:10075C0081E090E002C0880F991F6A95E2F78095BE
:10076C0082238BBB0895413059F428B381E090E08B
:10077C0002C0880F991F6A95E2F7822B88BB0895F7
:10078C0028B381E090E002C0880F991F6A95E2F7C8
:10079C008095822388BB0895413059F425B381E0BC
:1007AC0090E002C0880F991F6A95E2F7822B85BBF7
:1007BC00089525B381E090E002C0880F991F6A95D7
:1007CC00E2F78095822385BB0895413059F422B31A
:1007DC0081E090E002C0880F991F6A95E2F7822BA6
:1007EC0082BB089522B381E090E002C0880F991F6C
:0C07FC006A95E2F78095822382BB089585
:1008080010C00E94BB0858F00E94B40840F029F4B8
:100818005F3F29F00C94C90851110C94C3080C943B
:10082800F6080E94210768F39923B1F3552391F341
:10083800951B550BBB27AA2762177307840738F047
:100848009F5F5F4F220F331F441FAA1FA9F335D0A4
:100858000E2E3AF0E0E832D091505040E695001C58
:10086800CAF72BD0FE2F29D0660F771F881FBB1F12
:10087800261737074807AB07B0E809F0BB0B802DF0
:10088800BF01FF2793585F4F3AF09E3F510578F01C
:100898000C94C9080C94C3085F3FE4F3983ED4F362
:1008A800869577956795B795F7959F5FC9F7880FF0
:1008B800911D9695879597F90895E1E0660F771F42
:1008C800881FBB1F621773078407BA0720F0621BD3
:0E08D800730B840BBA0BEE1F88F7E0950895A2
:1008E6000FC00E94B40838F00E94BB0820F0952380
:1008F60011F00C94C9080C94F60811240C94C30842
:100906000E94210770F3959FC1F3950F50E0551F84
:10091600629FF001729FBB27F00DB11D639FAA274E
:10092600F00DB11DAA1F649F6627B00DA11D661F9D
:10093600829F2227B00DA11D621F739FB00DA11DBE
:10094600621F839FA00D611D221F749F3327A00D78
:10095600611D231F849F600D211D822F762F6A2F14
:1009660011249F5750409AF0F1F088234AF0EE0F79
:10097600FF1FBB1F661F771F881F91505040A9F7A6
:100986009E3F510580F00C94C9080C94C3085F3F44
:10099600E4F3983ED4F3869577956795B795F795E2
:1009A600E7959F5FC1F7FE2B880F911D969587955A
:0409B60097F9089510
:1009BA0011C00E94B40838F00E94BB0820F039F434
:1009CA009F3F19F426F40C94F6080EF4E095E7FB21
:1009DA000C94C908E92F0E94210758F3BA17620735
:1009EA0073078407950720F079F4A6F50C94C208DA
:1009FA000EF4E0950B2EBA2FA02D0B01B901900130
:100A0A000C01CA01A0011124FF27591B99F0593F73
:100A1A0050F4503E68F11A16F040A22F232F342FBB
:100A2A004427585FF3CF469537952795A795F04009
:100A3A005395C9F77EF41F16BA0B620B730B840B1E
:100A4A00BAF09150A1F0FF0FBB1F661F771F881FD6
:100A5A00C2F70EC0BA0F621F731F841F48F487952E
:100A6A0077956795B795F7959E3F08F0B0CF939520
:0E0A7A00880F08F09927EE0F9795879508953D
:100A8800E89409C097FB3EF4909580957095619520
:100A98007F4F8F4F9F4F9923A9F0F92F96E9BB27D6
:100AA8009395F695879577956795B795F111F8CF52
:100AB800FAF4BB0F11F460FF1BC06F5F7F4F8F4FBD
:100AC8009F4F16C0882311F096E911C0772321F0B3
:100AD8009EE8872F762F05C0662371F096E8862F4B
:100AE80070E060E02AF09A95660F771F881FDAF7A2
:0A0AF800880F9695879597F90895E9
:100B020041E060E081E00E94180341E061E081E0A1
:100B12000E94180341E062E081E00E9418036FEF37
:100B220082E00E941A082FEB8AED90E0215080406B
:100B32009040E1F700C0000088E30E94860725E8A4
:100B42002A95F1F700008FE00E94860785E88A95D2
:100B5200F1F7000081E00E9486078FE99FE001978C
:100B6200F1F700C0000086E00E94860795E89A959A
:060B7200F1F700000895F8
:100B78008430A8F5683098F5813089F028F0823003
:100B8800C9F0833011F108952BB381E090E002C0E1
:100B9800880F991F6A95E2F782278BBB089528B3BF
:100BA80081E090E002C0880F991F6A95E2F78227DA
:100BB80088BB089525B381E090E002C0880F991F93
:100BC8006A95E2F7822785BB089522B381E090E019
:100BD80002C0880F991F6A95E2F7822782BB0895A1
:100BE8001F920F920FB60F9211242F933F934F939A
:100BF8005F936F937F938F939F93AF93BF93EF937D
:100C0800FF93E0919000F091910024B185B190E0BC
:100C1800982F8827822B91838083E0E0F0E0099564
:100C28000E94D908FF91EF91BF91AF919F918F9149
:100C38007F916F915F914F913F912F910F900FBED0
:060C48000F901F901895AB
:100C4E0097B1907E97B997B1892B87B90E94E10829
:100C5E0080E090E0DC0103C00196A11DB11D349926
:100C6E0007C088382DE0920721E0A207B105A0F356
:100C7E0088389D40A140B10579F08FE19EE401973F
:100C8E00F1F700C000000E94DD0824B185B190E0AC
:0E0C9E00982F8827822B089580E090E008951B
:100CAC000E94290788F09F5798F0B92F9927B751C0
:100CBC00B0F0E1F0660F771F881F991F1AF0BA95F4
:100CCC00C9F714C0B13091F00E94C208B1E0089588
:100CDC000C94C208672F782F8827B85F39F0B93F7A
:100CEC00CCF3869577956795B395D9F73EF49095A7
:0E0CFC008095709561957F4F8F4F9F4F0895A3
:100D0A001F920F920FB60F9211242F933F934F9376
:100D1A005F936F937F938F939F93AF93BF93EF9359
:100D2A00FF93E0919400F0919500309709F00995AE
:100D3A00FF91EF91BF91AF919F918F917F916F91A9
:100D4A005F914F913F912F910F900FBE0F901F907F
:020D5A001895EA
:100D5C001F920F920FB60F9211242F933F934F9324
:100D6C005F936F937F938F939F93AF93BF93EF9307
:100D7C00FF93E0919200F0919300309709F0099560
:100D8C00FF91EF91BF91AF919F918F917F916F9157
:100D9C005F914F913F912F910F900FBE0F901F902D
:020DAC00189598
:100DAE00CF93C82F41E060E081E00E948E0340E0C7
:100DBE0061E081E00E948E036C2F82E00E94450864
:100DCE0041E062E081E00E948E0382E08A95F1F7B5
:100DDE0000C040E062E081E00E948E038FE19EE45D
:0C0DEE000197F1F700C00000CF910895BC
:100DFA00990F0008550FAA0BE0E8FEEF1616170622
:100E0A00E807F907C0F012161306E407F50798F089
:100E1A00621B730B840B950B39F40A2661F0232BA2
:100E2A00242B252B21F408950A2609F4A140A6951E
:080E3A008FEF811D811D089559
:100E420057FD9058440F551F59F05F3F71F0479579
:100E5200880F97FB991F61F09F3F79F0879508955E
:100E6200121613061406551FF2CF4695F1DF08C07D
:100E7200161617061806991FF1CF8695710561059A
:040E82000894089533
:100E8600A1E21A2EAA1BBB1BFD010DC0AA1FBB1F88
:100E9600EE1FFF1FA217B307E407F50720F0A21BFA
:100EA600B30BE40BF50B661F771F881F991F1A9467
:100EB60069F760957095809590959B01AC01BD0191
:040EC600CF010895BB
:100ECA0080E00E942706BC01660F771F660F771F16
:100EDA00680F791F80E090E00E94440520E030E02E
:100EEA0040E85AE30E94E90820E030E040E250E49A
:100EFA000E94AD0822E03BE247E85DE30E94E50874
:020F0A00089548
:100F0C00CF93C82F40E060E081E00E948E0340E068
:100F1C0061E081E00E948E036C2F82E00E94450804
:100F2C0041E062E081E00E948E0382E08A95F1F755
:100F3C0000C040E062E081E00E948E03CF910895F2
:100F4C00CF92DF92EF92CF9361157105810591F0ED
:100F5C006B01E82EC0E003C00E94D706CF5FAE2D18
:100F6C00C6018C0F911DA11DFC018491A7FD8081F0
:0E0F7C008111F2CFCF91EF90DF90CF900895CA
:100F8A0067E083E00E9468080E9430080E94810599
:100F9A000E9465070E94FF070E9496080E94560653
:100FAA000E9444050E9456060E949A028FE19EE41E
:0E0FBA000197F1F700C000000E948C08EDCFF7
:100FC80087B18F7B87B987B18F7787B987B18F7DD5
:100FD80087B986B1887F86B986B1866086B986B1B9
:100FE800806286B980B7817180BF80B780BF86B1C3
:060FF800806886B908952F
:100FFE0080E00E942706BC01660F771F660F771FE1
:10100E00680F791F80E090E00E94440520E030E0F8
:10101E0040E85AE30E94E90820E030E040EA50E45C
:06102E000E94E90808958C
:10103400843098F4813049F028F0823049F08330CC
:1010440051F008958FEF8ABB08958FEF87BB089501
:0C1054008FEF84BB08958FEF81BB0895DF
:101060000E94F3080E94F0080E949F0882E00E94FC
:10107000A608789481E00E94820887E590E00E94AB
:0A108000CF0888EE0E94FB080895D7
:10108A00843078F4813041F028F0823039F08330AE
:10109A0039F008956BBB089568BB089565BB089540
:0410AA0062BB089588
:1010AE00092E0394000C11F4882352F0BB0F40F468
:1010BE00BF2B11F460FF04C06F5F7F4F8F4F9F4FA8
:0210CE00089583
:1010D000CF93DF93C82FD62F41E00E94180340E042
:0E10E0006D2F8C2F0E948E03DF91CF9108950B
:1010EE00EC010E9400090E94FF08CE010E94010936
:0610FE00CE010E94FD0876
:10110400813021F489B7816089BF089589B78E7FC2
:0411140089BF0895F2
:1011180081E00E9486078FE99FE00197F1F700C000
:041128000000089526
:10112C0060917400709175008091760090917700B9
:02113C00089514
:0E113E0083B7806483BF83B7886083BF089542
:0E114C0093B7987F93BF93B7892B83BF089505
:0E115A005058BB27AA270E94DD040C945708AA
:0E11680000240A9416161706180609060895A4
:0E11760000240A9412161306140605060895A6
:0E118400E894BB2766277727CB0197F90895DB
:0C11920097F99F6780E870E060E0089526
:0A119E00909395008093940008954B
:0A11A8000E94FD0608F48FEF089581
:0811B20086B1877F86B908951C
:0811BA0086B1806186B9089539
:0811C20086B1806486B908952E
:0811CA000E9404040C94570874
:0811D2000E9473040C945708FD
:0611DA000E94BC0508950F
:0611E0000E94E4070895DF
:0611E6000E94E4070895D9
:0611EC009FEF80EC089566
:0411F2000C94000059
:0411F60082BF089517
:0411FA000E945500FA
:0211FE00089552
:0212000008954F
:0212020008954D
:00000001FF
