:100000000C942D000C94CF050C94FB050C94270642
:100010000C949C070C9473070C944A070C942107CA
:100020000C94F8060C94CF060C94A6060C947D064E
:100030000C941D0A0C941D0A0C941D0A0C941D0AA4
:100040000C943E050C941D0A0C941D0A0C941D0A78
:100050000C941D0A006000A0800011241FBECFE593
:10006000D8E0DEBFCDBFE4E5F0E040E017C0B591D9
:10007000A59135912591059107FD0CC0959185912C
:10008000EF01F92FE82F05900D92A217B307D9F7CA
:10009000FE0104C01D92A217B307E1F7E935F4078A
:0E00A00031F70E9468000C948F09F894FFCF8E
:1000AE0049203D200020410056203D2000205600D2
:1000BE0050203D200020570045203D200020572E87
:0200CE007300BD
:1000D0000E9453060E94030580919E008130E1F743
:1000E00080919F00813069F138F0823009F44EC070
:1000F000833009F470C093C00E94B7096B017C0182
:100100006EEA70E080E00E94B5088FEC97E00197FE
:10011000F1F700C00000C701B6010E9471048FEC26
:1001200097E00197F1F700C0000063EB70E080E01A
:100130000E94B5088FEC97E00197F1F700C000002E
:100140006EC00E94AE096B017C0166EB70E080E03E
:100150000E94B5088FEC97E00197F1F700C000000E
:10016000C701B6010E9471048FEC97E00197F1F787
:1001700000C000006BEB70E080E00E94B5088FECDF
:1001800097E00197F1F700C0000049C00E94C00944
:100190006B017C016EEB70E080E00E94B5088FEC93
:1001A00097E00197F1F700C00000C701B6010E9477
:1001B00071048FEC97E00197F1F700C0000063EC49
:1001C00070E080E00E94B5088FEC97E00197F1F7AE
:1001D00000C0000024C00E94C9096B017C0166ECCC
:1001E00070E080E00E94B5088FEC97E00197F1F78E
:1001F00000C00000C701B6010E9471048FEC97E0B7
:100200000197F1F700C000006BEC70E080E00E9405
:10021000B5088FEC97E00197F1F700C0000010924D
:040220009E005ACF13
:100224008F929F92AF92BF92CF92DF92EF92FF9202
:100234001F93CF93DF93CDB7DEB72A970FB6F89409
:10024400DEBF0FBECDBF6B017C0160E070E0CB016F
:1002540010E025C0DC01CB01880F991FAA1FBB1F2A
:100264004C015D01880C991CAA1CBB1C880C991CB0
:10027400AA1CBB1C880E991EAA1EBB1EC701B60170
:100284002AE030E040E050E00E943108680D791D1A
:100294008A1D9B1DC22ED32EE42EF52E1F5FC11482
:1002A400D104E104F104B1F6F12C13C02AE030E0EA
:1002B40040E050E00E943108E1E0F0E0EC0FFD1F67
:1002C400EC0DFD1D605D6083622F732F842F952FCD
:1002D400F394CF2C0F2C000CDD08212F30E0C21634
:1002E400D30624F3BE016F5F7F4FFB01E20FF31FC0
:1002F400108280E80E94B5082A960FB6F894DEBFF3
:100304000FBECDBFDF91CF911F91FF90EF90DF9093
:0C031400CF90BF90AF909F908F90089505
:10032000843008F072C0683008F06FC0423008F0C6
:100330006CC0813001F130F08230B1F1833009F4CA
:100340004CC00895413059F42AB381E090E002C0D6
:10035000880F991F6A95E2F7822B8ABB08952AB30A
:1003600081E090E002C0880F991F6A95E2F78095BE
:1003700082238ABB0895413059F427B381E090E08D
:1003800002C0880F991F6A95E2F7822B87BB0895F8
:1003900027B381E090E002C0880F991F6A95E2F7C9
:1003A0008095822387BB0895413059F424B381E0BE
:1003B00090E002C0880F991F6A95E2F7822B84BBF8
:1003C000089524B381E090E002C0880F991F6A95D8
:1003D000E2F78095822384BB0895413059F421B31C
:1003E00081E090E002C0880F991F6A95E2F7822BA6
:1003F00081BB089521B381E090E002C0880F991F6E
:0C0400006A95E2F78095822381BB089585
:10040C00843008F072C0683008F06FC0423008F0D9
:10041C006CC0813001F130F08230B1F1833009F4DD
:10042C004CC00895413059F42BB381E090E002C0E8
:10043C00880F991F6A95E2F7822B8BBB08952BB31B
:10044C0081E090E002C0880F991F6A95E2F78095D1
:10045C0082238BBB0895413059F428B381E090E09E
:10046C0002C0880F991F6A95E2F7822B88BB08950A
:10047C0028B381E090E002C0880F991F6A95E2F7DB
:10048C008095822388BB0895413059F425B381E0CF
:10049C0090E002C0880F991F6A95E2F7822B85BB0A
:1004AC00089525B381E090E002C0880F991F6A95EA
:1004BC00E2F78095822385BB0895413059F422B32D
:1004CC0081E090E002C0880F991F6A95E2F7822BB9
:1004DC0082BB089522B381E090E002C0880F991F7F
:0C04EC006A95E2F78095822382BB089598
:1004F80010C00E94E70958F00E94E00940F029F472
:100508005F3F29F00C94F50951110C94EF090C94F4
:100518001A0A0E940F0868F39923B1F3552391F33F
:10052800951B550BBB27AA2762177307840738F05A
:100538009F5F5F4F220F331F441FAA1FA9F335D0B7
:100548000E2E3AF0E0E832D091505040E695001C6B
:10055800CAF72BD0FE2F29D0660F771F881FBB1F25
:10056800261737074807AB07B0E809F0BB0B802D03
:10057800BF01FF2793585F4F3AF09E3F510578F02F
:100588000C94F5090C94EF095F3FE4F3983ED4F31B
:10059800869577956795B795F7959F5FC9F7880F03
:1005A800911D9695879597F90895E1E0660F771F55
:1005B800881FBB1F621773078407BA0720F0621BE6
:0E05C800730B840BBA0BEE1F88F7E0950895B5
:1005D6000FC00E94E00938F00E94E70920F0952339
:1005E60011F00C94F5090C941A0A11240C94EF09D5
:1005F6000E940F0870F3959FC1F3950F50E0551FA9
:10060600629FF001729FBB27F00DB11D639FAA2761
:10061600F00DB11DAA1F649F6627B00DA11D661FB0
:10062600829F2227B00DA11D621F739FB00DA11DD1
:10063600621F839FA00D611D221F749F3327A00D8B
:10064600611D231F849F600D211D822F762F6A2F27
:1006560011249F5750409AF0F1F088234AF0EE0F8C
:10066600FF1FBB1F661F771F881F91505040A9F7B9
:100676009E3F510580F00C94F5090C94EF095F3FFD
:10068600E4F3983ED4F3869577956795B795F795F5
:10069600E7959F5FC1F7FE2B880F911D969587956D
:0406A60097F9089523
:1006AA0011C00E94E00938F00E94E70920F039F4ED
:1006BA009F3F19F426F40C941A0A0EF4E095E7FB0E
:1006CA000C94F509E92F0E940F0858F3BA1762072C
:1006DA0073078407950720F079F4A6F50C94EE09C0
:1006EA000EF4E0950B2EBA2FA02D0B01B901900143
:1006FA000C01CA01A0011124FF27591B99F0593F87
:10070A0050F4503E68F11A16F040A22F232F342FCE
:10071A004427585FF3CF469537952795A795F0401C
:10072A005395C9F77EF41F16BA0B620B730B840B31
:10073A00BAF09150A1F0FF0FBB1F661F771F881FE9
:10074A00C2F70EC0BA0F621F731F841F48F4879541
:10075A0077956795B795F7959E3F08F0B0CF939533
:0E076A00880F08F09927EE0F97958795089550
:10077800663031F0673041F1653009F055C048C046
:10078800813069F028F0823089F08330B1F0089523
:1007980085B78E7F85BF85B7826085BF089585B789
:1007A800816085BF85B7826085BF089585B78E7FD4
:1007B80085BF85B78D7F85BF089585B7816085BF63
:1007C80085B78D7F85BF0895813069F028F0823024
:1007D80089F08330B1F0089585B78B7F85BF85B7E1
:1007E800886085BF089585B7846085BF85B78860B0
:1007F80085BF089585B78B7F85BF85B7877F85BF00
:10080800089585B7846085BF85B7877F85BF0895BC
:10081800882319F0813029F0089584B78F7B84BF2D
:0A082800089584B7806484BF08952A
:1008320080919A0090919B0083349F4009F046C0BA
:1008420081E080939E000E94A4090E94EF086093B9
:100852006C0070936D0080936E0090936F000E9405
:100862007408609368007093690080936A009093A3
:100872006B0020916C0030916D0040916E005091A0
:100882006F000E94100A9B01AC016093700070938C
:100892007100809372009093730060916000709178
:1008A200610080916200909163000E94DA09609376
:1008B20060007093610080936200909363001092D5
:1008C2009B0010929A0080E40E941F0A80919A0075
:1008D20090919B00019690939B0080939A000895BB
:1008E2008F929F92AF92BF92CF92DF92EF92FF923E
:1008F2004B015C0120E030E0A9010E94FB09882342
:100902003CF48DE20E94C507B7FAB094B7F8B094F0
:10091200C501B4010E94A0050E94120180E0C12C11
:10092200D12C7601C39413C0CC0CDD1CEE1CFF1C31
:10093200B701A601440F551F661F771F440F551FAD
:10094200661F771FC40ED51EE61EF71E8F5F82300C
:1009520058F38EE20E94C507C701B6010E94C8047F
:10096200A50194010E94100A0E94A005A701960108
:100972000E9431080E941201FF90EF90DF90CF9009
:0A098200BF90AF909F908F900895F2
:10098C00E89409C097FB3EF490958095709561951D
:10099C007F4F8F4F9F4F9923A9F0F92F96E9BB27D3
:1009AC009395F695879577956795B795F111F8CF4F
:1009BC00FAF4BB0F11F460FF1BC06F5F7F4F8F4FBA
:1009CC009F4F16C0882311F096E911C0772321F0B0
:1009DC009EE8872F762F05C0662371F096E8862F48
:1009EC0070E060E02AF09A95660F771F881FDAF79F
:0A09FC00880F9695879597F90895E6
:100A060041E060E081E00E94900141E061E081E028
:100A16000E94900141E062E081E00E9490016FEF48
:100A260082E00E940A092FEB8AED90E02150804077
:100A36009040E1F700C0000088E30E94950825E891
:100A46002A95F1F700008FE00E94950885E88A95BF
:100A5600F1F7000081E00E9495088FE99FE0019779
:100A6600F1F700C0000086E00E94950895E89A9587
:060A7600F1F700000895F5
:100A7C001F920F920FB60F9211242F933F934F9307
:100A8C005F936F937F938F939F93AF93BF93EF93EA
:100A9C00FF93E0919C00F0919D0024B185B190E012
:100AAC00982F8827822B91838083E0E0F0E00995D2
:100ABC000E94000AFF91EF91BF91AF919F918F918E
:100ACC007F916F915F914F913F912F910F900FBE3E
:060ADC000F901F90189519
:100AE20097B1907E97B997B1892B87B90E94080A6E
:100AF20080E090E0DC0103C00196A11DB11D349994
:100B020007C088382DE0920721E0A207B105A0F3C3
:100B120088389D40A140B10579F08FE19EE40197AC
:100B2200F1F700C000000E94040A24B185B190E0F0
:0E0B3200982F8827822B089580E090E0089588
:100B40000E94170888F09F5798F0B92F9927B7513E
:100B5000B0F0E1F0660F771F881F991F1AF0BA9561
:100B6000C9F714C0B13091F00E94EE09B1E00895C8
:100B70000C94EE09672F782F8827B85F39F0B93FBA
:100B8000CCF3869577956795B395D9F73EF4909514
:0E0B90008095709561957F4F8F4F9F4F089510
:100B9E001F920F920FB60F9211242F933F934F93E4
:100BAE005F936F937F938F939F93AF93BF93EF93C7
:100BBE00FF93E0919400F0919500309721F0099504
:100BCE0086E00E944509FF91EF91BF91AF919F91F1
:100BDE008F917F916F915F914F913F912F910F90D8
:080BEE000FBE0F901F90189537
:100BF6001F920F920FB60F9211242F933F934F938C
:100C06005F936F937F938F939F93AF93BF93EF936E
:100C1600FF93E0919600F0919700309721F00995A7
:100C260087E00E944509FF91EF91BF91AF919F9197
:100C36008F917F916F915F914F913F912F910F907F
:080C46000FBE0F901F901895DE
:100C4E001F920F920FB60F9211242F933F934F9333
:100C5E005F936F937F938F939F93AF93BF93EF9316
:100C6E00FF93E0919800F0919900309721F009954B
:100C7E0085E00E944509FF91EF91BF91AF919F9141
:100C8E008F917F916F915F914F913F912F910F9027
:080C9E000FBE0F901F90189586
:100CA6000E94170A0E94140A78940E94D20966E0EC
:100CB60081E00E94BC0386E00E94570960E083E55C
:100CC60098E00E94840967E081E00E94BC0387E007
:100CD6000E94570961E08AE999E00E9484090E940E
:100CE60020096BE089E194E00E94790980E40E9482
:040CF6001F0A089534
:100CFA001F920F920FB60F9211242F933F934F9387
:100D0A005F936F937F938F939F93AF93BF93EF9369
:100D1A00FF93E0918A00F0918B00309709F00995D2
:100D2A00FF91EF91BF91AF919F918F917F916F91B9
:100D3A005F914F913F912F910F900FBE0F901F908F
:020D4A001895FA
:100D4C001F920F920FB60F9211242F933F934F9334
:100D5C005F936F937F938F939F93AF93BF93EF9317
:100D6C00FF93E0918800F0918900309709F0099584
:100D7C00FF91EF91BF91AF919F918F917F916F9167
:100D8C005F914F913F912F910F900FBE0F901F903D
:020D9C001895A8
:100D9E001F920F920FB60F9211242F933F934F93E2
:100DAE005F936F937F938F939F93AF93BF93EF93C5
:100DBE00FF93E0918600F0918700309709F0099536
:100DCE00FF91EF91BF91AF919F918F917F916F9115
:100DDE005F914F913F912F910F900FBE0F901F90EB
:020DEE00189556
:100DF0001F920F920FB60F9211242F933F934F9390
:100E00005F936F937F938F939F93AF93BF93EF9372
:100E1000FF93E0918400F0918500309709F00995E7
:100E2000FF91EF91BF91AF919F918F917F916F91C2
:100E30005F914F913F912F910F900FBE0F901F9098
:020E4000189503
:100E42001F920F920FB60F9211242F933F934F933D
:100E52005F936F937F938F939F93AF93BF93EF9320
:100E6200FF93E0918200F0918300309709F0099599
:100E7200FF91EF91BF91AF919F918F917F916F9170
:100E82005F914F913F912F910F900FBE0F901F9046
:020E92001895B1
:100E94001F920F920FB60F9211242F933F934F93EB
:100EA4005F936F937F938F939F93AF93BF93EF93CE
:100EB400FF93E0918000F0918100309709F009954B
:100EC400FF91EF91BF91AF919F918F917F916F911E
:100ED4005F914F913F912F910F900FBE0F901F90F4
:020EE40018955F
:100EE6001F920F920FB60F9211242F933F934F9399
:100EF6005F936F937F938F939F93AF93BF93EF937C
:100F0600FF93E0917E00F0917F00309709F00995FC
:100F1600FF91EF91BF91AF919F918F917F916F91CB
:100F26005F914F913F912F910F900FBE0F901F90A1
:020F360018950C
:100F38001F920F920FB60F9211242F933F934F9346
:100F48005F936F937F938F939F93AF93BF93EF9329
:100F5800FF93E0917C00F0917D00309709F00995AE
:100F6800FF91EF91BF91AF919F918F917F916F9179
:100F78005F914F913F912F910F900FBE0F901F904F
:020F88001895BA
:100F8A00CF93C82F41E060E081E00E94060240E072
:100F9A0061E081E00E9406026C2F82E00E94330920
:100FAA0041E062E081E00E94060282E08A95F1F760
:100FBA0000C040E062E081E00E9406028FE19EE408
:0C0FCA000197F1F700C00000CF910895DE
:100FD600990F0008550FAA0BE0E8FEEF1616170644
:100FE600E807F907C0F012161306E407F50798F0AC
:100FF600621B730B840B950B39F40A2661F0232BC5
:10100600242B252B21F408950A2609F4A140A69540
:081016008FEF811D811D08957B
:10101E0057FD9058440F551F59F05F3F71F047959B
:10102E00880F97FB991F61F09F3F79F08795089580
:10103E00121613061406551FF2CF4695F1DF08C09F
:10104E00161617061806991FF1CF869571056105BC
:04105E000894089555
:10106200A1E21A2EAA1BBB1BFD010DC0AA1FBB1FAA
:10107200EE1FFF1FA217B307E407F50720F0A21B1C
:10108200B30BE40BF50B661F771F881F991F1A9489
:1010920069F760957095809590959B01AC01BD01B3
:0410A200CF010895DD
:1010A60010926C0010926D0010926E0010926F00FC
:1010B600109268001092690010926A0010926B00FC
:1010C60010927000109271001092720010927300CC
:1010D60010926000109261001092620010926300FC
:0210E60008956B
:1010E80080E00E947105BC01660F771F660F771FAD
:1010F800680F791F80E090E00E94C60420E030E08D
:1011080040E85AE30E94100A20E030E040E250E450
:101118000E94D90922E03BE247E85DE30E940C0AFD
:02112800089528
:10112A00CF93C82F40E060E081E00E94060240E0D1
:10113A0061E081E00E9406026C2F82E00E9433097E
:10114A0041E062E081E00E94060282E08A95F1F7BE
:10115A0000C040E062E081E00E940602CF9108955B
:10116A00CF92DF92EF92CF9361157105810591F0CD
:10117A006B01E82EC0E003C00E94C507CF5FAE2D09
:10118A00C6018C0F911DA11DFC018491A7FD8081D0
:0E119A008111F2CFCF91EF90DF90CF900895AA
:1011A80087B18F7B87B987B18F7787B987B18F7DF3
:1011B80087B986B1887F86B986B1866086B986B1D7
:1011C800806286B980B7817180BF80B780BF86B1E1
:0611D800806886B908954D
:1011DE0080E00E947105BC01660F771F660F771FB6
:1011EE00680F791F80E090E00E94C60420E030E096
:1011FE0040E85AE30E94100A20E030E040EA50E452
:06120E000E94100A089581
:10121400843098F4813049F028F0823049F08330EA
:1012240051F008958FEF8ABB08958FEF87BB08951F
:0C1234008FEF84BB08958FEF81BB0895FD
:1012400083B78F7B83BF83B7877F83BF89B7816075
:1012500089BF83B78B7F83BF83B7826083BF83B728
:061260008E7F83BF08959C
:10126600843078F4813041F028F0823039F08330D0
:1012760039F008956BBB089568BB089565BB089562
:0412860062BB0895AA
:10128A009BEF980F933068F44AB721E030E0B90138
:10129A0002C0660F771F8A95E2F7CB0180958423F7
:0412AA008ABF08955A
:1012AE009BEF980F933060F44BB721E030E0B9011B
:1012BE0002C0660F771F8A95E2F7CB01842B8BBF96
:0212CE00089581
:1012D000092E0394000C11F4882352F0BB0F40F444
:1012E000BF2B11F460FF04C06F5F7F4F8F4F9F4F84
:0212F00008955F
:1012F200009741F0E62FF0E0EE0FFF1FEC58FF4F92
:0613020091838083089531
:10130800009741F0E62FF0E0EE0FFF1FEC56FF4F7D
:061318009183808308951B
:10131E00EC010E94240A0E94230ACE010E94250A93
:06132E00CE010E94210A1D
:1013340080919F008F5F80939F00843010F0109203
:041344009F00089569
:1013480081E00E9495088FE99FE00197F1F700C0BE
:0413580000000895F4
:10135C0060916C0070916D0080916E0090916F00A7
:02136C000895E2
:10136E00609168007091690080916A0090916B00A5
:02137E000895D0
:101380006091700070917100809172009091730073
:021390000895BE
:1013920060916000709161008091620090916300A1
:0213A2000895AC
:0E13A40085B7816085BF85B78D7F85BF0895B1
:0E13B2005058BB27AA270E9455030C946809C7
:0E13C00000240A94161617061806090608954A
:0E13CE0000240A94121613061406050608954C
:0E13DC00E894BB2766277727CB0197F9089581
:0C13EA0097F99F6780E870E060E00895CC
:0A13F6000E94EB0708F481E008955F
:0814000086B1877F86B90895CB
:0814080086B1806186B90895E8
:0814100086B1806486B90895DD
:081418000E947C020C9468099B
:081420000E94EB020C94680924
:061428000E94D4080895A3
:06142E000E94D40808959D
:061434009FEF80EC08951B
:04143A000C9400000E
:04143E0082BF0895CC
:041442000E945500AF
:02144600089507
:02144800089505
:02144A00089503
:00000001FF
